:100000000C942A000C943F000C943F000C943F0089
:100010000C943F000C943F000C943F000C943F0064
:100020000C943F000C943F000C943F000C943F0054
:100030000C943F000C943F000C943F000C943F0044
:100040000C943F000C943F000C943F000C943F0034
:100050000C943F0011241FBECFE5D8E0DEBFCDBF1A
:1000600010E0A0E6B0E0E6EFF0E002C005900D92EF
:10007000AA36B107D9F70E9441000C9479000C947C
:100080000000CF93DF93CDB7DEB72A970FB6F89471
:10009000DEBF0FBECDBF8AE0E0E6F0E0DE011196E4
:1000A00001900D928A95E1F781E08ABB8FEF81BBC9
:1000B0009E01255F3F4F91E0FE0131969BBB8191F0
:1000C00082BB4FEF54E38CE0415050408040E1F759
:1000D00000C000001BBA12BA4FEF54E38CE041504D
:1000E00050408040E1F700C00000E217F30731F70D
:0600F000E3CFF894FFCFFE
:0A00F6003F065B4F666D7D077F6FCC
:00000001FF
