S01000004C45445F544553542E73726563A0
S11300000C942A000C943F000C943F000C943F0085
S11300100C943F000C943F000C943F000C943F0060
S11300200C943F000C943F000C943F000C943F0050
S11300300C943F000C943F000C943F000C943F0040
S11300400C943F000C943F000C943F000C943F0030
S11300500C943F0011241FBECFE5D8E0DEBFCDBF16
S113006010E0A0E6B0E0E6E1F1E002C005900D92F8
S1130070AA36B107D9F70E9441000C9489000C9468
S11300800000CF93DF93CDB7DEB72A970FB6F8946D
S1130090DEBF0FBECDBF8AE0E0E6F0E0DE011196E0
S11300A001900D928A95E1F781E08ABB8FEF81BBC5
S11300B08EEFAE01455F5F4F2FEF8BBBC999FDCF2C
S11300C03FE768E391E0315060409040E1F700C0C1
S11300D00000C999F2CFFE0131962BBB919192BBDE
S11300E03FEF64E39CE0315060409040E1F700C092
S11300F00000D898D99A12BA3FEF64E39CE03150DB
S113010060409040E1F700C00000E417F50729F7CC
S1090110D4CFF894FFCFE8
S10D01163F065B4F666D7D077F6FA7
S9030000FC
