:100000000C942A000C9434000C9434000C943400AA
:100010000C9434000C9434000C9434000C94340090
:100020000C9434000C9434000C9434000C94340080
:100030000C9434000C9434000C9434000C94340070
:100040000C9434000C9434000C9434000C94340060
:100050000C94340011241FBECFE5D8E0DEBFCDBF25
:100060000E9436000C9453000C94000081E08ABB7F
:100070008FEF81BB91E08FE79BBB82BB2FEF39E60F
:1000800048E1215030404040E1F700C000001BBA79
:1000900012BA2FEF39E648E1215030404040E1F7F5
:0A00A00000C00000E9CFF894FFCF84
:00000001FF
